:10000000A1C023C2B5C4B9C0B8C0D5C4B6C0B5C0BC
:10001000B4C0B3C0B2C0B1C0B0C0AFC0AEC00902BE
:1000200022000101008032090400000103010000E8
:10003000092101010001224C000705810308001E6F
:1000400012011001000000084242020000020102F9
:10005000000116034100510051005F0049005200A9
:1000600052002D00310020001203410051005500C4
:100070004100520049005500530004030904002EBA
:10008000D866783B202DC23A9445C84A301E881F56
:100090008804880588067020700770087009082198
:1000A000080A080B080CA822A80DA80EA80F4823C0
:1000B00048104811481228242813281428152816F7
:1000C00098259817981898196826681A681B681C4C
:1000D000681DB827B82C183718255820581F542ADF
:1000E000A0521050504FB05190284042F829F04192
:1000F0006030802F822CD03C05010906A1018501CA
:10010000050719E029E71500250195087501810209
:10011000950175088101950575081500257005077D
:10012000190029658100C005010980A1018502959A
:100130000175021501250309820981098381607512
:10014000068103C011241FBECFE5D1E0DEBFCDBFC5
:1001500010E0A0E6B0E0E2EBFDE002C005900D92F9
:10016000A436B107D9F720E0A4E6B0E001C01D92A3
:10017000AE3BB207E1F72CD41AC642CFCF93C62FBD
:100180002091800024FF07C03091810028E82327B8
:100190002093810003C02AE5209380002C2FFC01CE
:1001A000A2E8B0E081918D9321501216DCF36C2F00
:1001B00082E890E033D1CC5FC0938000CF91089566
:1001C000CF93DF9380919200835087FDA3C09091DD
:1001D0008D009D3209F09CC0883009F099C0809153
:1001E0008E00CCE0D0E0C81BD109CA56DF4F83ECAB
:1001F000809375008AE58093610010926500888184
:10020000807619F0CE018ED27AC09A8110927E004B
:100210008981811106C010927F002EE730E082E0D4
:100220006AC0853019F49093930062C0863009F05B
:1002300049C08B81813019F480E490E01AC082308B
:1002400041F48EE190E0909391008093900082E2DF
:1002500035C08330F1F4911108C08AE790E09093A3
:1002600091008093900084E029C0913041F488E6A9
:1002700090E0909391008093900082E11FC09230B3
:10028000E1F482E590E0909391008093900086E104
:1002900015C0813241F480E390E090939100809307
:1002A000900089E00BC0823241F488EF90E0909397
:1002B0009100809390008CE401C080E090E49093E2
:1002C00065001DC0883069F0893019F4909395005D
:1002D0000FC08A3049F08B3059F48BE48093810051
:1002E00007C025E930E002C02EE730E081E003C01E
:1002F0002EE730E080E030939100209390009F81C2
:10030000911104C09E81981708F4892F8093600092
:10031000109292008091610084FF46C0809160003D
:100320008F3F09F441C0C82F893008F0C8E08C1B0A
:10033000809360009091750088E88927809375000C
:10034000CC2331F140919000509191008091650053
:1003500086FF0AC0A6E7B0E0FA019C2F84918D9336
:1003600031969150D9F708C0DA01E6E7F0E09C2F0A
:100370008D9181939150E1F72FEF2C0F30E02F5F9B
:100380003F4FCA01820F931F90939100809390007A
:100390006C2F86E790E042D0CC5FCC3019F08FEF25
:1003A00080936000C093610084E196B3967031F44D
:1003B0008150D9F71092930010928C00C1E0811106
:1003C000C0E090916400C91721F08111CDD1C09394
:1003D0006400DF91CF91089585B7826085BF8BB7A8
:1003E00080648BBFE0E8F0E08BE481838AE5808362
:1003F0000895A82FB92F80E090E041E050EA609581
:1004000030E009C02D9182279795879510F08427B9
:100410009527305EC8F36F5FA8F30895EADF8D93E8
:100420009D930895A6E088279927AA9569F00197DA
:10043000E1F3B199FCCFB19BFECF81E09927A6B340
:10044000019611F0A670D9F70895CF93CFB7CF9347
:10045000C395B19BE9F7B19B10C0B19B0EC0B19B96
:100460000CC0B19B0AC0B19B08C0B19B06C0C09133
:100470008F00C395C0938F00D5C00F92DF93C091BA
:100480008E00DD27CA56DF4F012EB19B03C0DF91DE
:100490000F90E1CF2F930F931F934F932FEF4F6F39
:1004A00006B301FB20F95F933F9350E03BE065C04A
:1004B00016B30126502951FDC89556B3012701FBFB
:1004C00025F92F7306B3B1F05027102711FB26F939
:1004D00006B22230F0F000C016B3012701FB27F965
:1004E0000126502906B22430E8F54F77206816B36C
:1004F0000000F6CF50274F7D206206B2102F00007B
:1005000000C006B300265029102711FB26F906B2B9
:10051000E2CF4F7B06B3206400C0DACF012650291A
:10052000167006B269F14E7F2160012F16B328C004
:10053000002650294D7F06B22260102F29C00126C7
:1005400050294B7F06B22460012F2DC016B301261F
:100550005029477F2860000006B22EC04F7E06B3A8
:10056000206130C0422706B3499300265029102746
:1005700006B24FEF11FB20F9297F16B379F21670FE
:1005800059F10126502906B2012701FB21F9237FE9
:1005900006B371F2002650293150D0F006B2102770
:1005A00011FB22F9277E16B351F2012650290127AB
:1005B00001FB06B223F92F7C49F2000006B3102795
:1005C00011FB24F90026502906B22F7939F270CF99
:1005D00010E41ABF002719C03B503195C31BD0400F
:1005E00010E41ABF0881033C09F10B34F9F02091A3
:1005F0008C001981110F1213EDCF4A81441F093667
:1006000051F10D3211F0013E29F7009394003F9112
:100610005F914F911F910F912F91DF910F90CAB76A
:10062000C6FD16CFCF91CFBFCF91189520919400E2
:10063000222369F310919200112379F534307AF175
:100640003093920020938D0010918E003BE0311B7F
:1006500030938E0024C0009192000130F4F40AE53A
:100660004F7049F43091610034FD1AC0009361006D
:10067000C5E7D0E019C03091800034FD11C000936F
:100680008000C1E8D0E010C0052710E000C021C004
:10069000052710E0C89508BB14C03AE501C032ED4B
:1006A000032EC0E0D0E032E017B31660C19A08B361
:1006B00017BB56E020E84FEF20FF052708BB279522
:1006C00017951C3F28F700004552B0F720FF05277B
:1006D000279508BB17951C3FB8F629913A9561F705
:1006E000097F10919300110F08BBC250D04011F048
:1006F00010938C0010E41ABF026017B3197F402FCB
:10070000497F54E05A95F1F708BB17BB48BB7FCF30
:10071000EDE6F0E081E08083128214821582168279
:1007200017820895FC018DE690E0909391008093EC
:100730009000808180768032A9F48181813019F423
:10074000E7DF88E00895823041F48CE690E09093F2
:1007500091008093900081E008958A3019F483819C
:1007600080936C0080E00895DF92EF92FF920F93E8
:100770001F93CF93DF9308E010E0C0E0D0E8DD2EB8
:10078000DC0ED1BE4FDE7C0184E3E81689E0F8067A
:100790000CF4CD2DD6950150110989F78FEF8C0FF0
:1007A00081BF0C2F10E00F5F1F4F81B790E008173B
:1007B00019078CF037DE8453994097FF03C0919559
:1007C000819591098E159F0514F4C1B77C0181B7FD
:1007D0008F5F81BFEACFC1BF61B780E090E0DF915A
:1007E000CF911F910F91FF90EF90DF90D2C282E0E6
:1007F00089BF12BE83B7856083BF83B78D7F83BFF8
:1008000008958BB780668BBF85B7816085BF82E016
:1008100089BFA89A83B7856083BF83B78D7F83BF65
:10082000BB9AB898C09A7894E2CFCF92DF92EF92B9
:10083000FF9220916800222319F082B790E012BE47
:10084000209168002230F1F028F4222341F0213079
:1008500099F089C0233049F1243071F184C012BE6F
:1008600083B7856083BF83B78D7F83BF81E080932B
:1008700068001092690077C08A5891090F9778F440
:1008800082E017C081549109409768F0809162001E
:1008900090916300019690936300809362001092A0
:1008A000680013BE60C083E004C00797059750F44A
:1008B00084E08093680057C09C012750310927319C
:1008C000310520F013BE109268004DC020916900E0
:1008D000C090AE00D090AF00E090B000F090B100BA
:1008E0004197B0F08FE190E0821B910941E050E028
:1008F00002C0440F551F8A95E2F7052E000C660BC7
:10090000770BD701C601842B952BA62BB72B17C0CD
:100910008FE190E0821B910941E050E002C0440F5A
:10092000551F8A95E2F740955095052E000C660BF1
:10093000770BD701C60184239523A623B723809381
:10094000AE009093AF00A093B000B093B1002F5FC2
:1009500020936900203208F4A6CF81E080936700DD
:100960008BB78F7D8BBFFF90EF90DF90CF90089576
:100970001F920F920FB60F9211242F933F934F9314
:100980005F936F937F938F939F93AF93BF93EF93F7
:10099000FF934BDFFF91EF91BF91AF919F918F91AB
:1009A0007F916F915F914F913F912F910F900FBE6B
:1009B0000F901F9018951F920F920FB60F9211244F
:1009C0001092680013BE0F900FBE0F901F901895E5
:1009D000CF93DF93CDB7DEB728970FB6F894DEBF7D
:1009E0000FBECDBF20908F000CDF01DF80E090E0D4
:1009F000C8D18F3F09F081BFB99A84E1E2EBF1EFF2
:100A00003197F1F700C000008150C1F7B998E4DCDC
:100A10007894412C512C3201C12CD12C760100E06C
:100A200018861F82912C10E021E030E03A83298360
:100A3000A12CB12CE2E08E2EC3DB80918F00281216
:100A40000CC03FEF431A530A630A730A4FE144167E
:100A500051046104710468F407C020908F00412C98
:100A6000512C3201912C24C0992011F151E09512A2
:100A70001FC00023D9F098B237B2A2DBF894892DB9
:100A8000897F846088BB87B3866087BB8AE0ECE19E
:100A9000F0E13197F1F700C000008150C1F798BA3A
:100AA00037BA78948DDB72E0972E02C09924939424
:100AB0008BB780628BBF312C83DBF3E422E431E01F
:100AC000F15020403040E1F700C00000809162000A
:100AD0009091630049815A814817590718F49A8305
:100AE0008983312C339455E0531530F769DB8BB78C
:100AF0008F7D8BBF80916200909163008230910561
:100B000028F00197909363008093620080916200C7
:100B100090916300069730F065E070E07093630099
:100B200060936200112311F18091800084FF1EC048
:100B300080916200909163000297C0F481E090E0A0
:100B40009093630080936200EEE6F0E0119290E0F3
:100B5000E537F907D9F71092680068E08DE690E074
:100B60000DDB10E0E1E0F0E0FA83E98380916700BB
:100B7000811107C0F2E0CF16D104E104F10468F45A
:100B8000B3C0C114D104E104F10439F48091AF0081
:100B9000809366001092680013BEA0916600B09129
:100BA0006700EEE7F0E02F81388580E090E0B70144
:100BB000A60143505109610971094B835C836D8320
:100BC0007E8364916A1373C0B9016E5271096230F9
:100BD000710508F053C0C114D104E104F10459F4C3
:100BE000FC01EE0FFF1FE158FF4FE491AE2EB12C38
:100BF00018861F82C1C04B815C816D817E8141312D
:100C000051056105710538F5BB2309F450C0F901A0
:100C1000EE0FFF1FE158FF4FE491F0E0AE16BF0664
:100C200051F421E06F817885672B09F020E0E22FF5
:100C3000F0E0F887EF83EF81F885E80FF91FEE0FFA
:100C4000FF1FE158FF4FE491AE2EB12C80926E0051
:100C5000E09370003BC044E1C416D104E104F10408
:100C600030F1F901EE0FFF1FE158FF4FE491AE2E76
:100C7000B12C80926E00E093700012C0FC01EE0F68
:100C8000FF1FE158FF4FE491AE2EB12CE0937000AE
:100C90008E97039718F480926E0002C010926E0037
:100CA000C12CD12C760101E018861F820FC001965D
:100CB00032962F5F3F4F8D33910509F082CF51E07F
:100CC000C516D104E104F10409F456C0109267007E
:100CD0001092AD001092AC001092AE001092AF00D6
:100CE0001092B0001092B100013039F4C114D10457
:100CF000E104F10411F4112331F08091620090912C
:100D00006300029768F18091800084FF1DC080918C
:100D100070008636A9F480926D0061E060936E00E9
:100D200062E08DE690E02ADA8091800084FFFCCFBB
:100D300010926E0062E08DE690E020DA10E005C0CF
:100D400068E08DE690E01ADA11E0E2DC7FEF709364
:100D50006600C12CD12C760100E018861F826CCE73
:100D6000C114D104E104F10409F466CE8FEFC81A6E
:100D7000D80AE80AF80A60CEC12CD12C7601C394B7
:100D8000BCCFE199FECF1FBA8EBBE09A99278DB3F5
:100D90000895262FE199FECF1CBA1FBA8EBB2DBB3A
:100DA0000FB6F894E29AE19A0FBE01960895F8946E
:020DB000FFCF73
:040DB200FF5A0100E3
:00000001FF
